:100393003F065B4F666D7D077F6F777C395E7971B2
:0303A30076387336
:05000300C10101110123
:10037E00538E7F5389F0758AF0758CD8C28DD28CCE
:05038E00D2A9D2AF224C
:1000FE0012037ED2CCD2B7D2B6900393E4120197FC
:10010E007FC312033E7FC41201BB7FC51201BBE544
:10011E000E604BE4F50E851314D2B0D2B112025B11
:10012E008F13E513B4F30AE514B4F30575100180CB
:10013E002DE513B4F40BE51464F46005751002801C
:10014E001DE513B4F50BE51464F560057510038019
:10015E000DE513B4F008E514B4F003751004E50DC5
:10016E0060ADE4F50D9003931201977FC31201C5A4
:10017E0090039393FD7FC41201C5E5F09003939312
:09018E00FD7FC512033E02011DB4
:1001970093FD7FC012033E900393E493FD7FC1124A
:1001A700033E900393E493FD7FC212033E900393B3
:1001B700E493FD22900393E493FD12033E2212037E
:0801C7003EE51075F00A8422E8
:03000B0002000EE2
:10000E00C0E0C0F0C083C082C0D075D000C000C0B8
:0D001E0001C002C003C004C005C006C00739
:10002B00200068050BE50B7002050AC39432E50A44
:10003B0094004057750A00750B00E5119409501B8D
:10004B007FC01200D97FC112033E7FC21200D97F3D
:10005B00C31200F37FC41200F3801D7FC01200EBAC
:10006B007FC112033E7FC21200EB7FC312033E7DA2
:10007B00FF7FC412033E7DFF7FC512033E0511E5D2
:10008B0011D3940A4005751100D2003000250509E3
:10009B00E509700205080509E50970020508C39416
:1000AB0004E5089400400C750800750900750E01F5
:0300BB00750D01BF
:1000BE00D007D006D005D004D003D002D001D00096
:1000CE00D0D0D082D083D0F0D0E032E5119003931F
:1000DE0093FD12033EE51190039393FD227DFF12D3
:1000EE00033E7DFF2212033EE51190039393FD2202
:10036400D2B1D2B00000000000D2B1000000000001
:0A037400C2B10000000000C2B02278
:10030900C2B000000000000000000000C2B10000FF
:100319000000000000000000D2B000000000000052
:10032900000000000000000000D2B1000000000041
:05033900C2B0C2B122B8
:1002CA00E4FEC2B0EF30E004D2B18002C2B1000055
:1002DA00000000D2B0EFC313FF0EBE08E5C2B000A3
:1002EA000000000030B10BE516C3946450040516F3
:0E02FA0080F20000000000D2B0000000000002
:0103080022D2
:10025B001203647F421202CAD2B1E4FFC2B00000A3
:10026B000000000000000000EDC313FD00000000C3
:10027B00000000000000D2B030B1054305808000C3
:10028B0000000000000FBF08D3C2B0000000000048
:10029B00000000000030B10BE515C3946450040559
:1002AB001580F200000000000000000000D2B0003A
:0E02BB00000000000000000000120309AF0563
:0102C9002212
:10033E00AC071203647F4412035AAF041202CAAF11
:10034E000512035A7F8C1202CA0203091202CA1244
:06035E00030912036422F2
:030000000201CF2B
:0C01CF00787FE4F6D8FD7581200202164E
:1001DB000200FEE493A3F8E493A34003F68001F23C
:1001EB0008DFF48029E493A3F85407240CC8C33325
:1001FB00C4540F4420C8834004F456800146F6DFF4
:10020B00E4800B0102040810204080900003E47E80
:10021B00019360BCA3FF543F30E509541FFEE493E8
:10022B00A360010ECF54C025E060A840B8E493A3AF
:10023B00FAE493A3F8E493A3C8C582C8CAC583CADA
:10024B00F0A3C8C582C8CAC583CADFE9DEE780BE92
:0100080000F7
:00000001FF
